:100000000C9462000C948A000C948A000C948A0070
:100010000C948A000C948A000C948A000C948A0038
:100020000C948A000C948A000C948A000C948A0028
:100030000C948A000C948A000C948A000C948A0018
:100040000C9431030C948A000C948A000C948A005E
:100050000C948A000C948A000C948A000C948A00F8
:100060000C948A000C948A000000000023002600F3
:10007000290000000000240027002A0000000000E2
:10008000250028002B0004040404040404040202D4
:100090000202020203030303030301020408102007
:1000A0004080010204081020010204081020000012
:1000B0000008000201000003040700000000000027
:1000C0000000AA0411241FBECFEFD8E0DEBFCDBFD1
:1000D00011E0A0E0B1E0ECE7FDE002C005900D9278
:1000E000A437B107D9F721E0A4E7B1E001C01D9220
:1000F000A539B207E1F710E0C2E6D0E004C02197CD
:10010000FE010E94B606C136D107C9F70E947B03E3
:100110000C94BC060C940000833081F028F48130EC
:1001200099F08230A9F008958730A9F08830C9F09D
:100130008430B1F4809180008F7D03C08091800075
:100140008F7780938000089584B58F7784BD08955C
:1001500084B58F7DFBCF8091B0008F778093B00006
:1001600008958091B0008F7DF9CF1F93CF93DF93D7
:10017000282F30E0F901E255FF4F8491F901E6564E
:10018000FF4FD491F901EA57FF4FC491CC23A9F056
:10019000162F81110E948C00EC2FF0E0EE0FFF1F54
:1001A000E458FF4FA591B4918FB7F894EC911111D9
:1001B00008C0D095DE23DC938FBFDF91CF911F91D4
:1001C0000895DE2BF8CFCF93DF9390E0FC01E65645
:1001D000FF4F24918A579F4FFC0184918823D1F0CF
:1001E00090E0880F991FFC01EE58FF4FA591B49144
:1001F000FC01E458FF4FC591D49161110EC09FB727
:10020000F8948C91E22FE0958E238C932881E22341
:10021000E8839FBFDF91CF9108958FB7F894EC9159
:10022000E22BEC938FBFF6CF8E50806480937C00DE
:1002300080917A00806480937A0080917A0086FDB4
:10024000FCCF80917800909179000895AF92BF9291
:10025000CF92DF92EF92FF920F931F93CF93DF9392
:100260006C017B018B01040F151FEB015E01AE18C1
:10027000BF08C017D10759F06991D601ED91FC91E3
:100280000190F081E02DC6010995892B79F7C50110
:10029000DF91CF911F910F91FF90EF90DF90CF9062
:1002A000BF90AF900895089590E080E008958F92F8
:1002B0009F92AF92BF920F931F93CF93DF93CDB7CF
:1002C000DEB7A1970FB6F894DEBF0FBECDBF19A25F
:1002D000423008F44AE08E010F5D1F4F842E912CAE
:1002E000B12CA12CA50194010E948006E62FB90132
:1002F000CA01EA3044F5E05DD801EE938D01232B6D
:10030000242B252B79F790E080E0109769F0FD0110
:1003100001900020E9F73197AF014A1B5B0BBD014B
:100320008DE791E00E942601A1960FB6F894DEBFFA
:100330000FBECDBFDF91CF911F910F91BF90AF90B6
:100340009F908F900895E95CD7CFFC010190002029
:10035000E9F73197AF01481B590BBC018DE791E0DC
:100360000C942601CF93DF93EC0160E08E810E9414
:10037000B50061E08E810E94B50060E08E810E9430
:10038000B5008BE891E00197F1F7DF91CF910895E7
:10039000CF92DF92EF92FF920F931F93CF93DF9351
:1003A0006C017C0187E0E80EF11CD0E0C0E0062F74
:1003B00010E0B8010C2E02C0759567950A94E2F71B
:1003C0006170F70181917F010E94B5002196C430D0
:1003D000D10579F7C601DF91CF911F910F91FF9061
:1003E000EF90DF90CF900C94B201CF92DF92EF921A
:1003F000FF920F931F93CF93DF93EC01F62E642FA0
:100400008C810E94B5008D818F3F19F060E00E94C1
:10041000B5000F2D10E08F8584FF25C06E0187E0A9
:10042000C80ED11CF12CE12CB8010E2C02C0759520
:1004300067950A94E2F76170F60181916F010E945D
:10044000B500FFEFEF1AFF0A88E0E816F10461F744
:10045000CE01DF91CF911F910F91FF90EF90DF9030
:10046000CF900C94B201B80184E0759567958A9598
:10047000E1F7CE010E94C8016F2DCE01DF91CF912F
:100480001F910F91FF90EF90DF90CF900C94C801D7
:1004900040E0682F8DE791E00C94F501CF93DF9356
:1004A000613029F090918C01986090938C01609359
:1004B00090011092910190E49093920180939301A6
:1004C000805C8093940161E0809181010E94E3004F
:1004D000809182018F3F19F061E00E94E30061E0AA
:1004E000809183010E94E300CDE7D1E09E012D576A
:1004F000314080918C0184FD0BC084E090E0219616
:100500002817390744F461E08E810E94E300EECFA2
:1005100088E090E0F4CF8BE39DE00197F1F760E095
:10052000809181010E94B50060E0809183010E946A
:10053000B500809182018F3F19F060E00E94B50004
:1005400080918C0184FD39C063E08DE791E00E94C9
:10055000C801CBE4D6E4CE010197F1F763E08DE763
:1005600091E00E94C8012197F1F763E08DE791E0E7
:100570000E94C80183E592E00197F1F762E08DE700
:1005800091E00E94C80180918C0180620E94480223
:1005900084E080938D018CE00E94480281E00E94FB
:1005A00048028BE39FE10197F1F782E080938E018F
:1005B00086E0DF91CF910C94480280620E9448024D
:1005C0008BE496E40197F1F780918C0180620E94A0
:1005D000480283E592E00197F1F780918C018062F7
:1005E0000E944802D0CF90919001691710F06FEFF0
:1005F000690FE62FF0E0E358FE4F9489890F806879
:100600000C94480241E00E94F50181E090E00895D9
:10061000CF92DF92EF92FF926C01990FEE08FF08E4
:10062000F7FE16C041E06DE28DE791E00E94F50112
:1006300066277727CB016C197D098E099F094AE04F
:100640000E9457010196FF90EF90DF90CF900895A0
:100650004AE0C701B601FF90EF90DF90CF900C9475
:1006600057011F920F920FB60F9211242F933F93B1
:100670008F939F93AF93BF938091790190917A016B
:10068000A0917B01B0917C013091780123E0230F90
:100690002D3758F50196A11DB11D20937801809347
:1006A000790190937A01A0937B01B0937C018091B2
:1006B000740190917501A0917601B0917701019636
:1006C000A11DB11D8093740190937501A0937601D3
:1006D000B0937701BF91AF919F918F913F912F91EF
:1006E0000F900FBE0F901F90189526E8230F0296CB
:1006F000A11DB11DD2CF789484B5826084BD84B52C
:10070000816084BD85B5826085BD85B5816085BD0C
:1007100080916E00816080936E00109281008091C4
:10072000810082608093810080918100816080934C
:100730008100809180008160809380008091B10071
:1007400084608093B1008091B00081608093B0009C
:1007500080917A00846080937A0080917A00826030
:1007600080937A0080917A00816080937A008091F2
:100770007A00806880937A001092C10064E084E17E
:100780000E944E0260E080E00E94F3028CE091E063
:100790000E94A50161E086E00E94E30061E087E03D
:1007A0000E94E30060E08FE00E94E30095E9692E7B
:1007B00090E0792E0AE010E020E0822E20E0922ED8
:1007C0008EE00E941401BC01990F880B990B0E94C6
:1007D000730520E030EC4FE754E40E94C90420E0A8
:1007E00030E44CE955E40E94FF0520E030E040E2AF
:1007F00051E40E94C9040E943B051B016B0161E0AA
:1008000080E00E94F30283E291E00E94A501C10111
:100810000E94080387E291E00E94A501EDEBF0E061
:100820008491E9EAF0E0C491F301D491D11162C05E
:1008300061E08AE00E94F3028CE291E00E94A5014F
:10084000D0E0C0E080E10E941401B8010E946C0673
:100850007B0162E080E00E94F30283E391E00E946A
:10086000A501C7010E94080387E391E00E94A5014A
:1008700081E10E9414015C0162E08AE00E94F302BF
:100880008BE391E00E94A501C501B8010E946C06AE
:10089000CB010E94080387E391E00E94A501FFE1DC
:1008A000CF16D1040CF440C061E086E00E94B50090
:1008B00063E080E00E94F3028FE391E00E94A501D3
:1008C00088E2E816F1040CF03AC0CD2BC1F561E0E6
:1008D00087E00E94B50063E08AE00E94F30283E5AE
:1008E00091E00E94A5018114910409F469CF0E944E
:1008F000000066CF81110E948C00ED2FF0E0EE0F1A
:10090000FF1FE859FF4FA591B4918C91C82309F4BA
:100910008FCF61E08AE00E94F3028CE691E00E94B2
:10092000A501C1E0D0E08ECF60E086E00E94B50076
:1009300063E080E00E94F30289E491E0BFCF60E0D1
:1009400087E00E94B50063E08AE00E94F3028FE531
:1009500091E0C7CFEDE7F1E01382128284E091E0ED
:10096000918380838DE084838FEF85838CE0868301
:100970008BE087838AE0808789E0818788E08287AF
:100980001386148615861686178661E080E10C941E
:100990004E020E94DD040C94C5050E94BE0558F06D
:1009A0000E94B70540F029F45F3F29F00C94AE0592
:1009B00051110C94F9050C94B4050E94D60568F306
:1009C0009923B1F3552391F3951B550BBB27AA2708
:1009D00062177307840738F09F5F5F4F220F331F42
:1009E000441FAA1FA9F335D00E2E3AF0E0E832D00A
:1009F00091505040E695001CCAF72BD0FE2F29D00D
:100A0000660F771F881FBB1F261737074807AB07DE
:100A1000B0E809F0BB0B802DBF01FF2793585F4F53
:100A20003AF09E3F510578F00C94AE050C94F90510
:100A30005F3FE4F3983ED4F3869577956795B79535
:100A4000F7959F5FC9F7880F911D9695879597F940
:100A50000895E1E0660F771F881FBB1F62177307B9
:100A60008407BA0720F0621B730B840BBA0BEE1FCE
:100A700088F7E09508950E9442056894B1110C949E
:100A8000F90508950E94DE0588F09F5798F0B92F68
:100A90009927B751B0F0E1F0660F771F881F991FB3
:100AA0001AF0BA95C9F714C0B13091F00E94F80558
:100AB000B1E008950C94F805672F782F8827B85F68
:100AC00039F0B93FCCF3869577956795B395D9F70B
:100AD0003EF490958095709561957F4F8F4F9F4F15
:100AE0000895E89409C097FB3EF490958095709521
:100AF00061957F4F8F4F9F4F9923A9F0F92F96E96A
:100B0000BB279395F695879577956795B795F111DE
:100B1000F8CFFAF4BB0F11F460FF1BC06F5F7F4F7B
:100B20008F4F9F4F16C0882311F096E911C077238D
:100B300021F09EE8872F762F05C0662371F096E896
:100B4000862F70E060E02AF09A95660F771F881F65
:100B5000DAF7880F9695879597F9089597F99F6723
:100B600080E870E060E008959FEF80EC0895002435
:100B70000A941616170618060906089500240A9402
:100B800012161306140605060895092E0394000C88
:100B900011F4882352F0BB0F40F4BF2B11F460FF17
:100BA00004C06F5F7F4F8F4F9F4F089557FD905840
:100BB000440F551F59F05F3F71F04795880F97FB21
:100BC000991F61F09F3F79F08795089512161306DB
:100BD0001406551FF2CF4695F1DF08C0161617060A
:100BE0001806991FF1CF869571056105089408953F
:100BF000E894BB2766277727CB0197F908950E94D1
:100C000012060C94C5050E94B70538F00E94BE0577
:100C100020F0952311F00C94AE050C94B40511242A
:100C20000C94F9050E94D60570F3959FC1F3950FBA
:100C300050E0551F629FF001729FBB27F00DB11D60
:100C4000639FAA27F00DB11DAA1F649F6627B00DF0
:100C5000A11D661F829F2227B00DA11D621F739FD9
:100C6000B00DA11D621F839FA00D611D221F749FE7
:100C70003327A00D611D231F849F600D211D822F2E
:100C8000762F6A2F11249F5750409AF0F1F0882355
:100C90004AF0EE0FFF1FBB1F661F771F881F915082
:100CA0005040A9F79E3F510580F00C94AE050C947E
:100CB000F9055F3FE4F3983ED4F386957795679501
:100CC000B795F795E7959F5FC1F7FE2B880F911DAC
:100CD0009695879597F9089597FB072E16F400943B
:100CE00007D077FD09D00E94A20607FC05D03EF48C
:100CF000909581959F4F0895709561957F4F0895C8
:100D0000A1E21A2EAA1BBB1BFD010DC0AA1FBB1F0F
:100D1000EE1FFF1FA217B307E407F50720F0A21B81
:100D2000B30BE40BF50B661F771F881F991F1A94EE
:100D300069F760957095809590959B01AC01BD0118
:100D4000CF010895AA1BBB1B51E107C0AA1FBB1FFF
:100D5000A617B70710F0A61BB70B881F991F5A9547
:100D6000A9F780959095BC01CD010895EE0FFF1F66
:0C0D70000590F491E02D0994F894FFCF59
:100D7C0000000000020326015401530120496F5466
:100D8C0020534D415254204641524D494E4720204C
:100D9C0020200020543D00274320200020523D4EAF
:100DAC004F200020533D002520200020483D0020EE
:100DBC0046616E3A4F4E2020002046616E3A4F46F7
:100DCC00462000204D6F746F723A4F4E2020002049
:100DDC004D6F746F723A4F464620200020523D5999
:040DEC00455320004B
:00000001FF
